{
	"SmartWallet.sol": {
		"SmartWallet": {
			"abi": [
				{
					"inputs": [
						{
							"internalType": "address",
							"name": "_owner",
							"type": "address"
						}
					],
					"stateMutability": "nonpayable",
					"type": "constructor"
				},
				{
					"anonymous": false,
					"inputs": [
						{
							"indexed": true,
							"internalType": "address",
							"name": "sender",
							"type": "address"
						},
						{
							"indexed": false,
							"internalType": "uint256",
							"name": "amount",
							"type": "uint256"
						}
					],
					"name": "Deposit",
					"type": "event"
				},
				{
					"anonymous": false,
					"inputs": [
						{
							"indexed": true,
							"internalType": "address",
							"name": "to",
							"type": "address"
						},
						{
							"indexed": false,
							"internalType": "uint256",
							"name": "amount",
							"type": "uint256"
						}
					],
					"name": "Transfer",
					"type": "event"
				},
				{
					"inputs": [],
					"name": "getBalance",
					"outputs": [
						{
							"internalType": "uint256",
							"name": "",
							"type": "uint256"
						}
					],
					"stateMutability": "view",
					"type": "function"
				},
				{
					"inputs": [],
					"name": "owner",
					"outputs": [
						{
							"internalType": "address",
							"name": "",
							"type": "address"
						}
					],
					"stateMutability": "view",
					"type": "function"
				},
				{
					"inputs": [
						{
							"internalType": "address payable",
							"name": "to",
							"type": "address"
						},
						{
							"internalType": "uint256",
							"name": "amount",
							"type": "uint256"
						}
					],
					"name": "sendFunds",
					"outputs": [],
					"stateMutability": "nonpayable",
					"type": "function"
				},
				{
					"stateMutability": "payable",
					"type": "receive"
				}
			],
			"devdoc": {
				"kind": "dev",
				"methods": {},
				"version": 1
			},
			"evm": {
				"assembly": "    /* \"SmartWallet.sol\":57:794  contract SmartWallet {... */\n  mstore(0x40, 0x80)\n    /* \"SmartWallet.sol\":328:387  constructor(address _owner) {... */\n  callvalue\n  dup1\n  iszero\n  tag_1\n  jumpi\n  0x00\n  dup1\n  revert\ntag_1:\n  pop\n  mload(0x40)\n  sub(codesize, bytecodeSize)\n  dup1\n  bytecodeSize\n  dup4\n  codecopy\n  dup2\n  dup2\n  add\n  0x40\n  mstore\n  dup2\n  add\n  swap1\n  tag_2\n  swap2\n  swap1\n  tag_3\n  jump\t// in\ntag_2:\n    /* \"SmartWallet.sol\":374:380  _owner */\n  dup1\n    /* \"SmartWallet.sol\":366:371  owner */\n  0x00\n  dup1\n    /* \"SmartWallet.sol\":366:380  owner = _owner */\n  0x0100\n  exp\n  dup2\n  sload\n  dup2\n  0xffffffffffffffffffffffffffffffffffffffff\n  mul\n  not\n  and\n  swap1\n  dup4\n  0xffffffffffffffffffffffffffffffffffffffff\n  and\n  mul\n  or\n  swap1\n  sstore\n  pop\n    /* \"SmartWallet.sol\":328:387  constructor(address _owner) {... */\n  pop\n    /* \"SmartWallet.sol\":57:794  contract SmartWallet {... */\n  jump(tag_6)\n    /* \"#utility.yul\":88:205   */\ntag_8:\n    /* \"#utility.yul\":197:198   */\n  0x00\n    /* \"#utility.yul\":194:195   */\n  dup1\n    /* \"#utility.yul\":187:199   */\n  revert\n    /* \"#utility.yul\":334:460   */\ntag_10:\n    /* \"#utility.yul\":371:378   */\n  0x00\n    /* \"#utility.yul\":411:453   */\n  0xffffffffffffffffffffffffffffffffffffffff\n    /* \"#utility.yul\":404:409   */\n  dup3\n    /* \"#utility.yul\":400:454   */\n  and\n    /* \"#utility.yul\":389:454   */\n  swap1\n  pop\n    /* \"#utility.yul\":334:460   */\n  swap2\n  swap1\n  pop\n  jump\t// out\n    /* \"#utility.yul\":466:562   */\ntag_11:\n    /* \"#utility.yul\":503:510   */\n  0x00\n    /* \"#utility.yul\":532:556   */\n  tag_20\n    /* \"#utility.yul\":550:555   */\n  dup3\n    /* \"#utility.yul\":532:556   */\n  tag_10\n  jump\t// in\ntag_20:\n    /* \"#utility.yul\":521:556   */\n  swap1\n  pop\n    /* \"#utility.yul\":466:562   */\n  swap2\n  swap1\n  pop\n  jump\t// out\n    /* \"#utility.yul\":568:690   */\ntag_12:\n    /* \"#utility.yul\":641:665   */\n  tag_22\n    /* \"#utility.yul\":659:664   */\n  dup2\n    /* \"#utility.yul\":641:665   */\n  tag_11\n  jump\t// in\ntag_22:\n    /* \"#utility.yul\":634:639   */\n  dup2\n    /* \"#utility.yul\":631:666   */\n  eq\n    /* \"#utility.yul\":621:684   */\n  tag_23\n  jumpi\n    /* \"#utility.yul\":680:681   */\n  0x00\n    /* \"#utility.yul\":677:678   */\n  dup1\n    /* \"#utility.yul\":670:682   */\n  revert\n    /* \"#utility.yul\":621:684   */\ntag_23:\n    /* \"#utility.yul\":568:690   */\n  pop\n  jump\t// out\n    /* \"#utility.yul\":696:839   */\ntag_13:\n    /* \"#utility.yul\":753:758   */\n  0x00\n    /* \"#utility.yul\":784:790   */\n  dup2\n    /* \"#utility.yul\":778:791   */\n  mload\n    /* \"#utility.yul\":769:791   */\n  swap1\n  pop\n    /* \"#utility.yul\":800:833   */\n  tag_25\n    /* \"#utility.yul\":827:832   */\n  dup2\n    /* \"#utility.yul\":800:833   */\n  tag_12\n  jump\t// in\ntag_25:\n    /* \"#utility.yul\":696:839   */\n  swap3\n  swap2\n  pop\n  pop\n  jump\t// out\n    /* \"#utility.yul\":845:1196   */\ntag_3:\n    /* \"#utility.yul\":915:921   */\n  0x00\n    /* \"#utility.yul\":964:966   */\n  0x20\n    /* \"#utility.yul\":952:961   */\n  dup3\n    /* \"#utility.yul\":943:950   */\n  dup5\n    /* \"#utility.yul\":939:962   */\n  sub\n    /* \"#utility.yul\":935:967   */\n  slt\n    /* \"#utility.yul\":932:1051   */\n  iszero\n  tag_27\n  jumpi\n    /* \"#utility.yul\":970:1049   */\n  tag_28\n  tag_8\n  jump\t// in\ntag_28:\n    /* \"#utility.yul\":932:1051   */\ntag_27:\n    /* \"#utility.yul\":1090:1091   */\n  0x00\n    /* \"#utility.yul\":1115:1179   */\n  tag_29\n    /* \"#utility.yul\":1171:1178   */\n  dup5\n    /* \"#utility.yul\":1162:1168   */\n  dup3\n    /* \"#utility.yul\":1151:1160   */\n  dup6\n    /* \"#utility.yul\":1147:1169   */\n  add\n    /* \"#utility.yul\":1115:1179   */\n  tag_13\n  jump\t// in\ntag_29:\n    /* \"#utility.yul\":1105:1179   */\n  swap2\n  pop\n    /* \"#utility.yul\":1061:1189   */\n  pop\n    /* \"#utility.yul\":845:1196   */\n  swap3\n  swap2\n  pop\n  pop\n  jump\t// out\n    /* \"SmartWallet.sol\":57:794  contract SmartWallet {... */\ntag_6:\n  dataSize(sub_0)\n  dup1\n  dataOffset(sub_0)\n  0x00\n  codecopy\n  0x00\n  return\nstop\n\nsub_0: assembly {\n        /* \"SmartWallet.sol\":57:794  contract SmartWallet {... */\n      mstore(0x40, 0x80)\n      jumpi(tag_1, lt(calldatasize, 0x04))\n      shr(0xe0, calldataload(0x00))\n      dup1\n      0x12065fe0\n      eq\n      tag_3\n      jumpi\n      dup1\n      0x6f64234e\n      eq\n      tag_4\n      jumpi\n      dup1\n      0x8da5cb5b\n      eq\n      tag_5\n      jumpi\n      jump(tag_2)\n    tag_1:\n      jumpi(tag_2, calldatasize)\n        /* \"SmartWallet.sol\":443:453  msg.sender */\n      caller\n        /* \"SmartWallet.sol\":435:465  Deposit(msg.sender, msg.value) */\n      0xffffffffffffffffffffffffffffffffffffffff\n      and\n      0xe1fffcc4923d04b559f4d29a8bfc6cda04eb5b0d3c460751c2402c5c5cc9109c\n        /* \"SmartWallet.sol\":455:464  msg.value */\n      callvalue\n        /* \"SmartWallet.sol\":435:465  Deposit(msg.sender, msg.value) */\n      mload(0x40)\n      tag_8\n      swap2\n      swap1\n      tag_9\n      jump\t// in\n    tag_8:\n      mload(0x40)\n      dup1\n      swap2\n      sub\n      swap1\n      log2\n        /* \"SmartWallet.sol\":57:794  contract SmartWallet {... */\n      stop\n    tag_2:\n      0x00\n      dup1\n      revert\n        /* \"SmartWallet.sol\":698:792  function getBalance() public view returns (uint) {... */\n    tag_3:\n      callvalue\n      dup1\n      iszero\n      tag_10\n      jumpi\n      0x00\n      dup1\n      revert\n    tag_10:\n      pop\n      tag_11\n      tag_12\n      jump\t// in\n    tag_11:\n      mload(0x40)\n      tag_13\n      swap2\n      swap1\n      tag_9\n      jump\t// in\n    tag_13:\n      mload(0x40)\n      dup1\n      swap2\n      sub\n      swap1\n      return\n        /* \"SmartWallet.sol\":478:692  function sendFunds(address payable to, uint amount) public onlyOwner {... */\n    tag_4:\n      callvalue\n      dup1\n      iszero\n      tag_14\n      jumpi\n      0x00\n      dup1\n      revert\n    tag_14:\n      pop\n      tag_15\n      0x04\n      dup1\n      calldatasize\n      sub\n      dup2\n      add\n      swap1\n      tag_16\n      swap2\n      swap1\n      tag_17\n      jump\t// in\n    tag_16:\n      tag_18\n      jump\t// in\n    tag_15:\n      stop\n        /* \"SmartWallet.sol\":84:104  address public owner */\n    tag_5:\n      callvalue\n      dup1\n      iszero\n      tag_19\n      jumpi\n      0x00\n      dup1\n      revert\n    tag_19:\n      pop\n      tag_20\n      tag_21\n      jump\t// in\n    tag_20:\n      mload(0x40)\n      tag_22\n      swap2\n      swap1\n      tag_23\n      jump\t// in\n    tag_22:\n      mload(0x40)\n      dup1\n      swap2\n      sub\n      swap1\n      return\n        /* \"SmartWallet.sol\":698:792  function getBalance() public view returns (uint) {... */\n    tag_12:\n        /* \"SmartWallet.sol\":741:745  uint */\n      0x00\n        /* \"SmartWallet.sol\":764:785  address(this).balance */\n      selfbalance\n        /* \"SmartWallet.sol\":757:785  return address(this).balance */\n      swap1\n      pop\n        /* \"SmartWallet.sol\":698:792  function getBalance() public view returns (uint) {... */\n      swap1\n      jump\t// out\n        /* \"SmartWallet.sol\":478:692  function sendFunds(address payable to, uint amount) public onlyOwner {... */\n    tag_18:\n        /* \"SmartWallet.sol\":274:279  owner */\n      0x00\n      dup1\n      sload\n      swap1\n      0x0100\n      exp\n      swap1\n      div\n      0xffffffffffffffffffffffffffffffffffffffff\n      and\n        /* \"SmartWallet.sol\":260:279  msg.sender == owner */\n      0xffffffffffffffffffffffffffffffffffffffff\n      and\n        /* \"SmartWallet.sol\":260:270  msg.sender */\n      caller\n        /* \"SmartWallet.sol\":260:279  msg.sender == owner */\n      0xffffffffffffffffffffffffffffffffffffffff\n      and\n      eq\n        /* \"SmartWallet.sol\":252:304  require(msg.sender == owner, \"Not the wallet owner\") */\n      tag_26\n      jumpi\n      mload(0x40)\n      0x08c379a000000000000000000000000000000000000000000000000000000000\n      dup2\n      mstore\n      0x04\n      add\n      tag_27\n      swap1\n      tag_28\n      jump\t// in\n    tag_27:\n      mload(0x40)\n      dup1\n      swap2\n      sub\n      swap1\n      revert\n    tag_26:\n        /* \"SmartWallet.sol\":590:596  amount */\n      dup1\n        /* \"SmartWallet.sol\":565:586  address(this).balance */\n      selfbalance\n        /* \"SmartWallet.sol\":565:596  address(this).balance >= amount */\n      lt\n      iszero\n        /* \"SmartWallet.sol\":557:621  require(address(this).balance >= amount, \"Insufficient balance\") */\n      tag_30\n      jumpi\n      mload(0x40)\n      0x08c379a000000000000000000000000000000000000000000000000000000000\n      dup2\n      mstore\n      0x04\n      add\n      tag_31\n      swap1\n      tag_32\n      jump\t// in\n    tag_31:\n      mload(0x40)\n      dup1\n      swap2\n      sub\n      swap1\n      revert\n    tag_30:\n        /* \"SmartWallet.sol\":631:633  to */\n      dup2\n        /* \"SmartWallet.sol\":631:642  to.transfer */\n      0xffffffffffffffffffffffffffffffffffffffff\n      and\n        /* \"SmartWallet.sol\":631:650  to.transfer(amount) */\n      0x08fc\n        /* \"SmartWallet.sol\":643:649  amount */\n      dup3\n        /* \"SmartWallet.sol\":631:650  to.transfer(amount) */\n      swap1\n      dup2\n      iszero\n      mul\n      swap1\n      mload(0x40)\n      0x00\n      mload(0x40)\n      dup1\n      dup4\n      sub\n      dup2\n      dup6\n      dup9\n      dup9\n      call\n      swap4\n      pop\n      pop\n      pop\n      pop\n      iszero\n      dup1\n      iszero\n      tag_34\n      jumpi\n      returndatasize\n      0x00\n      dup1\n      returndatacopy\n      revert(0x00, returndatasize)\n    tag_34:\n      pop\n        /* \"SmartWallet.sol\":674:676  to */\n      dup2\n        /* \"SmartWallet.sol\":665:685  Transfer(to, amount) */\n      0xffffffffffffffffffffffffffffffffffffffff\n      and\n      0x69ca02dd4edd7bf0a4abb9ed3b7af3f14778db5d61921c7dc7cd545266326de2\n        /* \"SmartWallet.sol\":678:684  amount */\n      dup3\n        /* \"SmartWallet.sol\":665:685  Transfer(to, amount) */\n      mload(0x40)\n      tag_35\n      swap2\n      swap1\n      tag_9\n      jump\t// in\n    tag_35:\n      mload(0x40)\n      dup1\n      swap2\n      sub\n      swap1\n      log2\n        /* \"SmartWallet.sol\":478:692  function sendFunds(address payable to, uint amount) public onlyOwner {... */\n      pop\n      pop\n      jump\t// out\n        /* \"SmartWallet.sol\":84:104  address public owner */\n    tag_21:\n      0x00\n      dup1\n      sload\n      swap1\n      0x0100\n      exp\n      swap1\n      div\n      0xffffffffffffffffffffffffffffffffffffffff\n      and\n      dup2\n      jump\t// out\n        /* \"#utility.yul\":7:84   */\n    tag_36:\n        /* \"#utility.yul\":44:51   */\n      0x00\n        /* \"#utility.yul\":73:78   */\n      dup2\n        /* \"#utility.yul\":62:78   */\n      swap1\n      pop\n        /* \"#utility.yul\":7:84   */\n      swap2\n      swap1\n      pop\n      jump\t// out\n        /* \"#utility.yul\":90:208   */\n    tag_37:\n        /* \"#utility.yul\":177:201   */\n      tag_57\n        /* \"#utility.yul\":195:200   */\n      dup2\n        /* \"#utility.yul\":177:201   */\n      tag_36\n      jump\t// in\n    tag_57:\n        /* \"#utility.yul\":172:175   */\n      dup3\n        /* \"#utility.yul\":165:202   */\n      mstore\n        /* \"#utility.yul\":90:208   */\n      pop\n      pop\n      jump\t// out\n        /* \"#utility.yul\":214:436   */\n    tag_9:\n        /* \"#utility.yul\":307:311   */\n      0x00\n        /* \"#utility.yul\":345:347   */\n      0x20\n        /* \"#utility.yul\":334:343   */\n      dup3\n        /* \"#utility.yul\":330:348   */\n      add\n        /* \"#utility.yul\":322:348   */\n      swap1\n      pop\n        /* \"#utility.yul\":358:429   */\n      tag_59\n        /* \"#utility.yul\":426:427   */\n      0x00\n        /* \"#utility.yul\":415:424   */\n      dup4\n        /* \"#utility.yul\":411:428   */\n      add\n        /* \"#utility.yul\":402:408   */\n      dup5\n        /* \"#utility.yul\":358:429   */\n      tag_37\n      jump\t// in\n    tag_59:\n        /* \"#utility.yul\":214:436   */\n      swap3\n      swap2\n      pop\n      pop\n      jump\t// out\n        /* \"#utility.yul\":523:640   */\n    tag_39:\n        /* \"#utility.yul\":632:633   */\n      0x00\n        /* \"#utility.yul\":629:630   */\n      dup1\n        /* \"#utility.yul\":622:634   */\n      revert\n        /* \"#utility.yul\":769:895   */\n    tag_41:\n        /* \"#utility.yul\":806:813   */\n      0x00\n        /* \"#utility.yul\":846:888   */\n      0xffffffffffffffffffffffffffffffffffffffff\n        /* \"#utility.yul\":839:844   */\n      dup3\n        /* \"#utility.yul\":835:889   */\n      and\n        /* \"#utility.yul\":824:889   */\n      swap1\n      pop\n        /* \"#utility.yul\":769:895   */\n      swap2\n      swap1\n      pop\n      jump\t// out\n        /* \"#utility.yul\":901:1005   */\n    tag_42:\n        /* \"#utility.yul\":946:953   */\n      0x00\n        /* \"#utility.yul\":975:999   */\n      tag_65\n        /* \"#utility.yul\":993:998   */\n      dup3\n        /* \"#utility.yul\":975:999   */\n      tag_41\n      jump\t// in\n    tag_65:\n        /* \"#utility.yul\":964:999   */\n      swap1\n      pop\n        /* \"#utility.yul\":901:1005   */\n      swap2\n      swap1\n      pop\n      jump\t// out\n        /* \"#utility.yul\":1011:1149   */\n    tag_43:\n        /* \"#utility.yul\":1092:1124   */\n      tag_67\n        /* \"#utility.yul\":1118:1123   */\n      dup2\n        /* \"#utility.yul\":1092:1124   */\n      tag_42\n      jump\t// in\n    tag_67:\n        /* \"#utility.yul\":1085:1090   */\n      dup2\n        /* \"#utility.yul\":1082:1125   */\n      eq\n        /* \"#utility.yul\":1072:1143   */\n      tag_68\n      jumpi\n        /* \"#utility.yul\":1139:1140   */\n      0x00\n        /* \"#utility.yul\":1136:1137   */\n      dup1\n        /* \"#utility.yul\":1129:1141   */\n      revert\n        /* \"#utility.yul\":1072:1143   */\n    tag_68:\n        /* \"#utility.yul\":1011:1149   */\n      pop\n      jump\t// out\n        /* \"#utility.yul\":1155:1310   */\n    tag_44:\n        /* \"#utility.yul\":1209:1214   */\n      0x00\n        /* \"#utility.yul\":1247:1253   */\n      dup2\n        /* \"#utility.yul\":1234:1254   */\n      calldataload\n        /* \"#utility.yul\":1225:1254   */\n      swap1\n      pop\n        /* \"#utility.yul\":1263:1304   */\n      tag_70\n        /* \"#utility.yul\":1298:1303   */\n      dup2\n        /* \"#utility.yul\":1263:1304   */\n      tag_43\n      jump\t// in\n    tag_70:\n        /* \"#utility.yul\":1155:1310   */\n      swap3\n      swap2\n      pop\n      pop\n      jump\t// out\n        /* \"#utility.yul\":1316:1438   */\n    tag_45:\n        /* \"#utility.yul\":1389:1413   */\n      tag_72\n        /* \"#utility.yul\":1407:1412   */\n      dup2\n        /* \"#utility.yul\":1389:1413   */\n      tag_36\n      jump\t// in\n    tag_72:\n        /* \"#utility.yul\":1382:1387   */\n      dup2\n        /* \"#utility.yul\":1379:1414   */\n      eq\n        /* \"#utility.yul\":1369:1432   */\n      tag_73\n      jumpi\n        /* \"#utility.yul\":1428:1429   */\n      0x00\n        /* \"#utility.yul\":1425:1426   */\n      dup1\n        /* \"#utility.yul\":1418:1430   */\n      revert\n        /* \"#utility.yul\":1369:1432   */\n    tag_73:\n        /* \"#utility.yul\":1316:1438   */\n      pop\n      jump\t// out\n        /* \"#utility.yul\":1444:1583   */\n    tag_46:\n        /* \"#utility.yul\":1490:1495   */\n      0x00\n        /* \"#utility.yul\":1528:1534   */\n      dup2\n        /* \"#utility.yul\":1515:1535   */\n      calldataload\n        /* \"#utility.yul\":1506:1535   */\n      swap1\n      pop\n        /* \"#utility.yul\":1544:1577   */\n      tag_75\n        /* \"#utility.yul\":1571:1576   */\n      dup2\n        /* \"#utility.yul\":1544:1577   */\n      tag_45\n      jump\t// in\n    tag_75:\n        /* \"#utility.yul\":1444:1583   */\n      swap3\n      swap2\n      pop\n      pop\n      jump\t// out\n        /* \"#utility.yul\":1589:2079   */\n    tag_17:\n        /* \"#utility.yul\":1665:1671   */\n      0x00\n        /* \"#utility.yul\":1673:1679   */\n      dup1\n        /* \"#utility.yul\":1722:1724   */\n      0x40\n        /* \"#utility.yul\":1710:1719   */\n      dup4\n        /* \"#utility.yul\":1701:1708   */\n      dup6\n        /* \"#utility.yul\":1697:1720   */\n      sub\n        /* \"#utility.yul\":1693:1725   */\n      slt\n        /* \"#utility.yul\":1690:1809   */\n      iszero\n      tag_77\n      jumpi\n        /* \"#utility.yul\":1728:1807   */\n      tag_78\n      tag_39\n      jump\t// in\n    tag_78:\n        /* \"#utility.yul\":1690:1809   */\n    tag_77:\n        /* \"#utility.yul\":1848:1849   */\n      0x00\n        /* \"#utility.yul\":1873:1934   */\n      tag_79\n        /* \"#utility.yul\":1926:1933   */\n      dup6\n        /* \"#utility.yul\":1917:1923   */\n      dup3\n        /* \"#utility.yul\":1906:1915   */\n      dup7\n        /* \"#utility.yul\":1902:1924   */\n      add\n        /* \"#utility.yul\":1873:1934   */\n      tag_44\n      jump\t// in\n    tag_79:\n        /* \"#utility.yul\":1863:1934   */\n      swap3\n      pop\n        /* \"#utility.yul\":1819:1944   */\n      pop\n        /* \"#utility.yul\":1983:1985   */\n      0x20\n        /* \"#utility.yul\":2009:2062   */\n      tag_80\n        /* \"#utility.yul\":2054:2061   */\n      dup6\n        /* \"#utility.yul\":2045:2051   */\n      dup3\n        /* \"#utility.yul\":2034:2043   */\n      dup7\n        /* \"#utility.yul\":2030:2052   */\n      add\n        /* \"#utility.yul\":2009:2062   */\n      tag_46\n      jump\t// in\n    tag_80:\n        /* \"#utility.yul\":1999:2062   */\n      swap2\n      pop\n        /* \"#utility.yul\":1954:2072   */\n      pop\n        /* \"#utility.yul\":1589:2079   */\n      swap3\n      pop\n      swap3\n      swap1\n      pop\n      jump\t// out\n        /* \"#utility.yul\":2085:2181   */\n    tag_47:\n        /* \"#utility.yul\":2122:2129   */\n      0x00\n        /* \"#utility.yul\":2151:2175   */\n      tag_82\n        /* \"#utility.yul\":2169:2174   */\n      dup3\n        /* \"#utility.yul\":2151:2175   */\n      tag_41\n      jump\t// in\n    tag_82:\n        /* \"#utility.yul\":2140:2175   */\n      swap1\n      pop\n        /* \"#utility.yul\":2085:2181   */\n      swap2\n      swap1\n      pop\n      jump\t// out\n        /* \"#utility.yul\":2187:2305   */\n    tag_48:\n        /* \"#utility.yul\":2274:2298   */\n      tag_84\n        /* \"#utility.yul\":2292:2297   */\n      dup2\n        /* \"#utility.yul\":2274:2298   */\n      tag_47\n      jump\t// in\n    tag_84:\n        /* \"#utility.yul\":2269:2272   */\n      dup3\n        /* \"#utility.yul\":2262:2299   */\n      mstore\n        /* \"#utility.yul\":2187:2305   */\n      pop\n      pop\n      jump\t// out\n        /* \"#utility.yul\":2311:2533   */\n    tag_23:\n        /* \"#utility.yul\":2404:2408   */\n      0x00\n        /* \"#utility.yul\":2442:2444   */\n      0x20\n        /* \"#utility.yul\":2431:2440   */\n      dup3\n        /* \"#utility.yul\":2427:2445   */\n      add\n        /* \"#utility.yul\":2419:2445   */\n      swap1\n      pop\n        /* \"#utility.yul\":2455:2526   */\n      tag_86\n        /* \"#utility.yul\":2523:2524   */\n      0x00\n        /* \"#utility.yul\":2512:2521   */\n      dup4\n        /* \"#utility.yul\":2508:2525   */\n      add\n        /* \"#utility.yul\":2499:2505   */\n      dup5\n        /* \"#utility.yul\":2455:2526   */\n      tag_48\n      jump\t// in\n    tag_86:\n        /* \"#utility.yul\":2311:2533   */\n      swap3\n      swap2\n      pop\n      pop\n      jump\t// out\n        /* \"#utility.yul\":2539:2708   */\n    tag_49:\n        /* \"#utility.yul\":2623:2634   */\n      0x00\n        /* \"#utility.yul\":2657:2663   */\n      dup3\n        /* \"#utility.yul\":2652:2655   */\n      dup3\n        /* \"#utility.yul\":2645:2664   */\n      mstore\n        /* \"#utility.yul\":2697:2701   */\n      0x20\n        /* \"#utility.yul\":2692:2695   */\n      dup3\n        /* \"#utility.yul\":2688:2702   */\n      add\n        /* \"#utility.yul\":2673:2702   */\n      swap1\n      pop\n        /* \"#utility.yul\":2539:2708   */\n      swap3\n      swap2\n      pop\n      pop\n      jump\t// out\n        /* \"#utility.yul\":2714:2884   */\n    tag_50:\n        /* \"#utility.yul\":2854:2876   */\n      0x4e6f74207468652077616c6c6574206f776e6572000000000000000000000000\n        /* \"#utility.yul\":2850:2851   */\n      0x00\n        /* \"#utility.yul\":2842:2848   */\n      dup3\n        /* \"#utility.yul\":2838:2852   */\n      add\n        /* \"#utility.yul\":2831:2877   */\n      mstore\n        /* \"#utility.yul\":2714:2884   */\n      pop\n      jump\t// out\n        /* \"#utility.yul\":2890:3256   */\n    tag_51:\n        /* \"#utility.yul\":3032:3035   */\n      0x00\n        /* \"#utility.yul\":3053:3120   */\n      tag_90\n        /* \"#utility.yul\":3117:3119   */\n      0x14\n        /* \"#utility.yul\":3112:3115   */\n      dup4\n        /* \"#utility.yul\":3053:3120   */\n      tag_49\n      jump\t// in\n    tag_90:\n        /* \"#utility.yul\":3046:3120   */\n      swap2\n      pop\n        /* \"#utility.yul\":3129:3222   */\n      tag_91\n        /* \"#utility.yul\":3218:3221   */\n      dup3\n        /* \"#utility.yul\":3129:3222   */\n      tag_50\n      jump\t// in\n    tag_91:\n        /* \"#utility.yul\":3247:3249   */\n      0x20\n        /* \"#utility.yul\":3242:3245   */\n      dup3\n        /* \"#utility.yul\":3238:3250   */\n      add\n        /* \"#utility.yul\":3231:3250   */\n      swap1\n      pop\n        /* \"#utility.yul\":2890:3256   */\n      swap2\n      swap1\n      pop\n      jump\t// out\n        /* \"#utility.yul\":3262:3681   */\n    tag_28:\n        /* \"#utility.yul\":3428:3432   */\n      0x00\n        /* \"#utility.yul\":3466:3468   */\n      0x20\n        /* \"#utility.yul\":3455:3464   */\n      dup3\n        /* \"#utility.yul\":3451:3469   */\n      add\n        /* \"#utility.yul\":3443:3469   */\n      swap1\n      pop\n        /* \"#utility.yul\":3515:3524   */\n      dup2\n        /* \"#utility.yul\":3509:3513   */\n      dup2\n        /* \"#utility.yul\":3505:3525   */\n      sub\n        /* \"#utility.yul\":3501:3502   */\n      0x00\n        /* \"#utility.yul\":3490:3499   */\n      dup4\n        /* \"#utility.yul\":3486:3503   */\n      add\n        /* \"#utility.yul\":3479:3526   */\n      mstore\n        /* \"#utility.yul\":3543:3674   */\n      tag_93\n        /* \"#utility.yul\":3669:3673   */\n      dup2\n        /* \"#utility.yul\":3543:3674   */\n      tag_51\n      jump\t// in\n    tag_93:\n        /* \"#utility.yul\":3535:3674   */\n      swap1\n      pop\n        /* \"#utility.yul\":3262:3681   */\n      swap2\n      swap1\n      pop\n      jump\t// out\n        /* \"#utility.yul\":3687:3857   */\n    tag_52:\n        /* \"#utility.yul\":3827:3849   */\n      0x496e73756666696369656e742062616c616e6365000000000000000000000000\n        /* \"#utility.yul\":3823:3824   */\n      0x00\n        /* \"#utility.yul\":3815:3821   */\n      dup3\n        /* \"#utility.yul\":3811:3825   */\n      add\n        /* \"#utility.yul\":3804:3850   */\n      mstore\n        /* \"#utility.yul\":3687:3857   */\n      pop\n      jump\t// out\n        /* \"#utility.yul\":3863:4229   */\n    tag_53:\n        /* \"#utility.yul\":4005:4008   */\n      0x00\n        /* \"#utility.yul\":4026:4093   */\n      tag_96\n        /* \"#utility.yul\":4090:4092   */\n      0x14\n        /* \"#utility.yul\":4085:4088   */\n      dup4\n        /* \"#utility.yul\":4026:4093   */\n      tag_49\n      jump\t// in\n    tag_96:\n        /* \"#utility.yul\":4019:4093   */\n      swap2\n      pop\n        /* \"#utility.yul\":4102:4195   */\n      tag_97\n        /* \"#utility.yul\":4191:4194   */\n      dup3\n        /* \"#utility.yul\":4102:4195   */\n      tag_52\n      jump\t// in\n    tag_97:\n        /* \"#utility.yul\":4220:4222   */\n      0x20\n        /* \"#utility.yul\":4215:4218   */\n      dup3\n        /* \"#utility.yul\":4211:4223   */\n      add\n        /* \"#utility.yul\":4204:4223   */\n      swap1\n      pop\n        /* \"#utility.yul\":3863:4229   */\n      swap2\n      swap1\n      pop\n      jump\t// out\n        /* \"#utility.yul\":4235:4654   */\n    tag_32:\n        /* \"#utility.yul\":4401:4405   */\n      0x00\n        /* \"#utility.yul\":4439:4441   */\n      0x20\n        /* \"#utility.yul\":4428:4437   */\n      dup3\n        /* \"#utility.yul\":4424:4442   */\n      add\n        /* \"#utility.yul\":4416:4442   */\n      swap1\n      pop\n        /* \"#utility.yul\":4488:4497   */\n      dup2\n        /* \"#utility.yul\":4482:4486   */\n      dup2\n        /* \"#utility.yul\":4478:4498   */\n      sub\n        /* \"#utility.yul\":4474:4475   */\n      0x00\n        /* \"#utility.yul\":4463:4472   */\n      dup4\n        /* \"#utility.yul\":4459:4476   */\n      add\n        /* \"#utility.yul\":4452:4499   */\n      mstore\n        /* \"#utility.yul\":4516:4647   */\n      tag_99\n        /* \"#utility.yul\":4642:4646   */\n      dup2\n        /* \"#utility.yul\":4516:4647   */\n      tag_53\n      jump\t// in\n    tag_99:\n        /* \"#utility.yul\":4508:4647   */\n      swap1\n      pop\n        /* \"#utility.yul\":4235:4654   */\n      swap2\n      swap1\n      pop\n      jump\t// out\n\n    auxdata: 0xa2646970667358221220c1345da99ca80f2a4b358474c1b14eb7e2bf26e528218fa23200be32f61d072464736f6c63430008190033\n}\n",
				"bytecode": {
					"linkReferences": {},
					"object": "608060405234801561000f575f80fd5b506040516105ee3803806105ee833981810160405281019061003191906100d4565b805f806101000a81548173ffffffffffffffffffffffffffffffffffffffff021916908373ffffffffffffffffffffffffffffffffffffffff160217905550506100ff565b5f80fd5b5f73ffffffffffffffffffffffffffffffffffffffff82169050919050565b5f6100a38261007a565b9050919050565b6100b381610099565b81146100bd575f80fd5b50565b5f815190506100ce816100aa565b92915050565b5f602082840312156100e9576100e8610076565b5b5f6100f6848285016100c0565b91505092915050565b6104e28061010c5f395ff3fe608060405260043610610037575f3560e01c806312065fe0146100905780636f64234e146100ba5780638da5cb5b146100e25761008c565b3661008c573373ffffffffffffffffffffffffffffffffffffffff167fe1fffcc4923d04b559f4d29a8bfc6cda04eb5b0d3c460751c2402c5c5cc9109c3460405161008291906102b4565b60405180910390a2005b5f80fd5b34801561009b575f80fd5b506100a461010c565b6040516100b191906102b4565b60405180910390f35b3480156100c5575f80fd5b506100e060048036038101906100db9190610355565b610113565b005b3480156100ed575f80fd5b506100f6610279565b60405161010391906103b3565b60405180910390f35b5f47905090565b5f8054906101000a900473ffffffffffffffffffffffffffffffffffffffff1673ffffffffffffffffffffffffffffffffffffffff163373ffffffffffffffffffffffffffffffffffffffff16146101a0576040517f08c379a000000000000000000000000000000000000000000000000000000000815260040161019790610426565b60405180910390fd5b804710156101e3576040517f08c379a00000000000000000000000000000000000000000000000000000000081526004016101da9061048e565b60405180910390fd5b8173ffffffffffffffffffffffffffffffffffffffff166108fc8290811502906040515f60405180830381858888f19350505050158015610226573d5f803e3d5ffd5b508173ffffffffffffffffffffffffffffffffffffffff167f69ca02dd4edd7bf0a4abb9ed3b7af3f14778db5d61921c7dc7cd545266326de28260405161026d91906102b4565b60405180910390a25050565b5f8054906101000a900473ffffffffffffffffffffffffffffffffffffffff1681565b5f819050919050565b6102ae8161029c565b82525050565b5f6020820190506102c75f8301846102a5565b92915050565b5f80fd5b5f73ffffffffffffffffffffffffffffffffffffffff82169050919050565b5f6102fa826102d1565b9050919050565b61030a816102f0565b8114610314575f80fd5b50565b5f8135905061032581610301565b92915050565b6103348161029c565b811461033e575f80fd5b50565b5f8135905061034f8161032b565b92915050565b5f806040838503121561036b5761036a6102cd565b5b5f61037885828601610317565b925050602061038985828601610341565b9150509250929050565b5f61039d826102d1565b9050919050565b6103ad81610393565b82525050565b5f6020820190506103c65f8301846103a4565b92915050565b5f82825260208201905092915050565b7f4e6f74207468652077616c6c6574206f776e65720000000000000000000000005f82015250565b5f6104106014836103cc565b915061041b826103dc565b602082019050919050565b5f6020820190508181035f83015261043d81610404565b9050919050565b7f496e73756666696369656e742062616c616e63650000000000000000000000005f82015250565b5f6104786014836103cc565b915061048382610444565b602082019050919050565b5f6020820190508181035f8301526104a58161046c565b905091905056fea2646970667358221220c1345da99ca80f2a4b358474c1b14eb7e2bf26e528218fa23200be32f61d072464736f6c63430008190033",
					"opcodes": "PUSH1 0x80 PUSH1 0x40 MSTORE CALLVALUE DUP1 ISZERO PUSH2 0xF JUMPI PUSH0 DUP1 REVERT JUMPDEST POP PUSH1 0x40 MLOAD PUSH2 0x5EE CODESIZE SUB DUP1 PUSH2 0x5EE DUP4 CODECOPY DUP2 DUP2 ADD PUSH1 0x40 MSTORE DUP2 ADD SWAP1 PUSH2 0x31 SWAP2 SWAP1 PUSH2 0xD4 JUMP JUMPDEST DUP1 PUSH0 DUP1 PUSH2 0x100 EXP DUP2 SLOAD DUP2 PUSH20 0xFFFFFFFFFFFFFFFFFFFFFFFFFFFFFFFFFFFFFFFF MUL NOT AND SWAP1 DUP4 PUSH20 0xFFFFFFFFFFFFFFFFFFFFFFFFFFFFFFFFFFFFFFFF AND MUL OR SWAP1 SSTORE POP POP PUSH2 0xFF JUMP JUMPDEST PUSH0 DUP1 REVERT JUMPDEST PUSH0 PUSH20 0xFFFFFFFFFFFFFFFFFFFFFFFFFFFFFFFFFFFFFFFF DUP3 AND SWAP1 POP SWAP2 SWAP1 POP JUMP JUMPDEST PUSH0 PUSH2 0xA3 DUP3 PUSH2 0x7A JUMP JUMPDEST SWAP1 POP SWAP2 SWAP1 POP JUMP JUMPDEST PUSH2 0xB3 DUP2 PUSH2 0x99 JUMP JUMPDEST DUP2 EQ PUSH2 0xBD JUMPI PUSH0 DUP1 REVERT JUMPDEST POP JUMP JUMPDEST PUSH0 DUP2 MLOAD SWAP1 POP PUSH2 0xCE DUP2 PUSH2 0xAA JUMP JUMPDEST SWAP3 SWAP2 POP POP JUMP JUMPDEST PUSH0 PUSH1 0x20 DUP3 DUP5 SUB SLT ISZERO PUSH2 0xE9 JUMPI PUSH2 0xE8 PUSH2 0x76 JUMP JUMPDEST JUMPDEST PUSH0 PUSH2 0xF6 DUP5 DUP3 DUP6 ADD PUSH2 0xC0 JUMP JUMPDEST SWAP2 POP POP SWAP3 SWAP2 POP POP JUMP JUMPDEST PUSH2 0x4E2 DUP1 PUSH2 0x10C PUSH0 CODECOPY PUSH0 RETURN INVALID PUSH1 0x80 PUSH1 0x40 MSTORE PUSH1 0x4 CALLDATASIZE LT PUSH2 0x37 JUMPI PUSH0 CALLDATALOAD PUSH1 0xE0 SHR DUP1 PUSH4 0x12065FE0 EQ PUSH2 0x90 JUMPI DUP1 PUSH4 0x6F64234E EQ PUSH2 0xBA JUMPI DUP1 PUSH4 0x8DA5CB5B EQ PUSH2 0xE2 JUMPI PUSH2 0x8C JUMP JUMPDEST CALLDATASIZE PUSH2 0x8C JUMPI CALLER PUSH20 0xFFFFFFFFFFFFFFFFFFFFFFFFFFFFFFFFFFFFFFFF AND PUSH32 0xE1FFFCC4923D04B559F4D29A8BFC6CDA04EB5B0D3C460751C2402C5C5CC9109C CALLVALUE PUSH1 0x40 MLOAD PUSH2 0x82 SWAP2 SWAP1 PUSH2 0x2B4 JUMP JUMPDEST PUSH1 0x40 MLOAD DUP1 SWAP2 SUB SWAP1 LOG2 STOP JUMPDEST PUSH0 DUP1 REVERT JUMPDEST CALLVALUE DUP1 ISZERO PUSH2 0x9B JUMPI PUSH0 DUP1 REVERT JUMPDEST POP PUSH2 0xA4 PUSH2 0x10C JUMP JUMPDEST PUSH1 0x40 MLOAD PUSH2 0xB1 SWAP2 SWAP1 PUSH2 0x2B4 JUMP JUMPDEST PUSH1 0x40 MLOAD DUP1 SWAP2 SUB SWAP1 RETURN JUMPDEST CALLVALUE DUP1 ISZERO PUSH2 0xC5 JUMPI PUSH0 DUP1 REVERT JUMPDEST POP PUSH2 0xE0 PUSH1 0x4 DUP1 CALLDATASIZE SUB DUP2 ADD SWAP1 PUSH2 0xDB SWAP2 SWAP1 PUSH2 0x355 JUMP JUMPDEST PUSH2 0x113 JUMP JUMPDEST STOP JUMPDEST CALLVALUE DUP1 ISZERO PUSH2 0xED JUMPI PUSH0 DUP1 REVERT JUMPDEST POP PUSH2 0xF6 PUSH2 0x279 JUMP JUMPDEST PUSH1 0x40 MLOAD PUSH2 0x103 SWAP2 SWAP1 PUSH2 0x3B3 JUMP JUMPDEST PUSH1 0x40 MLOAD DUP1 SWAP2 SUB SWAP1 RETURN JUMPDEST PUSH0 SELFBALANCE SWAP1 POP SWAP1 JUMP JUMPDEST PUSH0 DUP1 SLOAD SWAP1 PUSH2 0x100 EXP SWAP1 DIV PUSH20 0xFFFFFFFFFFFFFFFFFFFFFFFFFFFFFFFFFFFFFFFF AND PUSH20 0xFFFFFFFFFFFFFFFFFFFFFFFFFFFFFFFFFFFFFFFF AND CALLER PUSH20 0xFFFFFFFFFFFFFFFFFFFFFFFFFFFFFFFFFFFFFFFF AND EQ PUSH2 0x1A0 JUMPI PUSH1 0x40 MLOAD PUSH32 0x8C379A000000000000000000000000000000000000000000000000000000000 DUP2 MSTORE PUSH1 0x4 ADD PUSH2 0x197 SWAP1 PUSH2 0x426 JUMP JUMPDEST PUSH1 0x40 MLOAD DUP1 SWAP2 SUB SWAP1 REVERT JUMPDEST DUP1 SELFBALANCE LT ISZERO PUSH2 0x1E3 JUMPI PUSH1 0x40 MLOAD PUSH32 0x8C379A000000000000000000000000000000000000000000000000000000000 DUP2 MSTORE PUSH1 0x4 ADD PUSH2 0x1DA SWAP1 PUSH2 0x48E JUMP JUMPDEST PUSH1 0x40 MLOAD DUP1 SWAP2 SUB SWAP1 REVERT JUMPDEST DUP2 PUSH20 0xFFFFFFFFFFFFFFFFFFFFFFFFFFFFFFFFFFFFFFFF AND PUSH2 0x8FC DUP3 SWAP1 DUP2 ISZERO MUL SWAP1 PUSH1 0x40 MLOAD PUSH0 PUSH1 0x40 MLOAD DUP1 DUP4 SUB DUP2 DUP6 DUP9 DUP9 CALL SWAP4 POP POP POP POP ISZERO DUP1 ISZERO PUSH2 0x226 JUMPI RETURNDATASIZE PUSH0 DUP1 RETURNDATACOPY RETURNDATASIZE PUSH0 REVERT JUMPDEST POP DUP2 PUSH20 0xFFFFFFFFFFFFFFFFFFFFFFFFFFFFFFFFFFFFFFFF AND PUSH32 0x69CA02DD4EDD7BF0A4ABB9ED3B7AF3F14778DB5D61921C7DC7CD545266326DE2 DUP3 PUSH1 0x40 MLOAD PUSH2 0x26D SWAP2 SWAP1 PUSH2 0x2B4 JUMP JUMPDEST PUSH1 0x40 MLOAD DUP1 SWAP2 SUB SWAP1 LOG2 POP POP JUMP JUMPDEST PUSH0 DUP1 SLOAD SWAP1 PUSH2 0x100 EXP SWAP1 DIV PUSH20 0xFFFFFFFFFFFFFFFFFFFFFFFFFFFFFFFFFFFFFFFF AND DUP2 JUMP JUMPDEST PUSH0 DUP2 SWAP1 POP SWAP2 SWAP1 POP JUMP JUMPDEST PUSH2 0x2AE DUP2 PUSH2 0x29C JUMP JUMPDEST DUP3 MSTORE POP POP JUMP JUMPDEST PUSH0 PUSH1 0x20 DUP3 ADD SWAP1 POP PUSH2 0x2C7 PUSH0 DUP4 ADD DUP5 PUSH2 0x2A5 JUMP JUMPDEST SWAP3 SWAP2 POP POP JUMP JUMPDEST PUSH0 DUP1 REVERT JUMPDEST PUSH0 PUSH20 0xFFFFFFFFFFFFFFFFFFFFFFFFFFFFFFFFFFFFFFFF DUP3 AND SWAP1 POP SWAP2 SWAP1 POP JUMP JUMPDEST PUSH0 PUSH2 0x2FA DUP3 PUSH2 0x2D1 JUMP JUMPDEST SWAP1 POP SWAP2 SWAP1 POP JUMP JUMPDEST PUSH2 0x30A DUP2 PUSH2 0x2F0 JUMP JUMPDEST DUP2 EQ PUSH2 0x314 JUMPI PUSH0 DUP1 REVERT JUMPDEST POP JUMP JUMPDEST PUSH0 DUP2 CALLDATALOAD SWAP1 POP PUSH2 0x325 DUP2 PUSH2 0x301 JUMP JUMPDEST SWAP3 SWAP2 POP POP JUMP JUMPDEST PUSH2 0x334 DUP2 PUSH2 0x29C JUMP JUMPDEST DUP2 EQ PUSH2 0x33E JUMPI PUSH0 DUP1 REVERT JUMPDEST POP JUMP JUMPDEST PUSH0 DUP2 CALLDATALOAD SWAP1 POP PUSH2 0x34F DUP2 PUSH2 0x32B JUMP JUMPDEST SWAP3 SWAP2 POP POP JUMP JUMPDEST PUSH0 DUP1 PUSH1 0x40 DUP4 DUP6 SUB SLT ISZERO PUSH2 0x36B JUMPI PUSH2 0x36A PUSH2 0x2CD JUMP JUMPDEST JUMPDEST PUSH0 PUSH2 0x378 DUP6 DUP3 DUP7 ADD PUSH2 0x317 JUMP JUMPDEST SWAP3 POP POP PUSH1 0x20 PUSH2 0x389 DUP6 DUP3 DUP7 ADD PUSH2 0x341 JUMP JUMPDEST SWAP2 POP POP SWAP3 POP SWAP3 SWAP1 POP JUMP JUMPDEST PUSH0 PUSH2 0x39D DUP3 PUSH2 0x2D1 JUMP JUMPDEST SWAP1 POP SWAP2 SWAP1 POP JUMP JUMPDEST PUSH2 0x3AD DUP2 PUSH2 0x393 JUMP JUMPDEST DUP3 MSTORE POP POP JUMP JUMPDEST PUSH0 PUSH1 0x20 DUP3 ADD SWAP1 POP PUSH2 0x3C6 PUSH0 DUP4 ADD DUP5 PUSH2 0x3A4 JUMP JUMPDEST SWAP3 SWAP2 POP POP JUMP JUMPDEST PUSH0 DUP3 DUP3 MSTORE PUSH1 0x20 DUP3 ADD SWAP1 POP SWAP3 SWAP2 POP POP JUMP JUMPDEST PUSH32 0x4E6F74207468652077616C6C6574206F776E6572000000000000000000000000 PUSH0 DUP3 ADD MSTORE POP JUMP JUMPDEST PUSH0 PUSH2 0x410 PUSH1 0x14 DUP4 PUSH2 0x3CC JUMP JUMPDEST SWAP2 POP PUSH2 0x41B DUP3 PUSH2 0x3DC JUMP JUMPDEST PUSH1 0x20 DUP3 ADD SWAP1 POP SWAP2 SWAP1 POP JUMP JUMPDEST PUSH0 PUSH1 0x20 DUP3 ADD SWAP1 POP DUP2 DUP2 SUB PUSH0 DUP4 ADD MSTORE PUSH2 0x43D DUP2 PUSH2 0x404 JUMP JUMPDEST SWAP1 POP SWAP2 SWAP1 POP JUMP JUMPDEST PUSH32 0x496E73756666696369656E742062616C616E6365000000000000000000000000 PUSH0 DUP3 ADD MSTORE POP JUMP JUMPDEST PUSH0 PUSH2 0x478 PUSH1 0x14 DUP4 PUSH2 0x3CC JUMP JUMPDEST SWAP2 POP PUSH2 0x483 DUP3 PUSH2 0x444 JUMP JUMPDEST PUSH1 0x20 DUP3 ADD SWAP1 POP SWAP2 SWAP1 POP JUMP JUMPDEST PUSH0 PUSH1 0x20 DUP3 ADD SWAP1 POP DUP2 DUP2 SUB PUSH0 DUP4 ADD MSTORE PUSH2 0x4A5 DUP2 PUSH2 0x46C JUMP JUMPDEST SWAP1 POP SWAP2 SWAP1 POP JUMP INVALID LOG2 PUSH5 0x6970667358 0x22 SLT KECCAK256 0xC1 CALLVALUE TSTORE 0xA9 SWAP13 0xA8 0xF 0x2A 0x4B CALLDATALOAD DUP5 PUSH21 0xC1B14EB7E2BF26E528218FA23200BE32F61D072464 PUSH20 0x6F6C634300081900330000000000000000000000 "
				},
				"gasEstimates": {
					"creation": {
						"codeDepositCost": "250000",
						"executionCost": "infinite",
						"totalCost": "infinite"
					},
					"external": {
						"getBalance()": "312",
						"owner()": "2527",
						"sendFunds(address,uint256)": "infinite"
					}
				},
				"methodIdentifiers": {
					"getBalance()": "12065fe0",
					"owner()": "8da5cb5b",
					"sendFunds(address,uint256)": "6f64234e"
				}
			},
			"storageLayout": {
				"storage": [
					{
						"astId": 3,
						"contract": "SmartWallet.sol:SmartWallet",
						"label": "owner",
						"offset": 0,
						"slot": "0",
						"type": "t_address"
					}
				],
				"types": {
					"t_address": {
						"encoding": "inplace",
						"label": "address",
						"numberOfBytes": "20"
					}
				}
			},
			"userdoc": {
				"kind": "user",
				"methods": {},
				"version": 1
			}
		}
	}
}